{
  "contractName": "Cow",
  "abi": [
    {
      "inputs": [
        {
          "internalType": "string",
          "name": "name",
          "type": "string"
        }
      ],
      "stateMutability": "nonpayable",
      "type": "constructor"
    },
    {
      "inputs": [
        {
          "internalType": "string",
          "name": "food",
          "type": "string"
        }
      ],
      "name": "eat",
      "outputs": [
        {
          "internalType": "string",
          "name": "",
          "type": "string"
        }
      ],
      "stateMutability": "pure",
      "type": "function",
      "constant": true
    },
    {
      "inputs": [],
      "name": "getIfMeatEater",
      "outputs": [
        {
          "internalType": "bool",
          "name": "",
          "type": "bool"
        }
      ],
      "stateMutability": "view",
      "type": "function",
      "constant": true
    },
    {
      "inputs": [],
      "name": "getName",
      "outputs": [
        {
          "internalType": "string",
          "name": "",
          "type": "string"
        }
      ],
      "stateMutability": "view",
      "type": "function",
      "constant": true
    },
    {
      "inputs": [],
      "name": "sleep",
      "outputs": [
        {
          "internalType": "string",
          "name": "",
          "type": "string"
        }
      ],
      "stateMutability": "pure",
      "type": "function",
      "constant": true
    },
    {
      "inputs": [],
      "name": "speak",
      "outputs": [
        {
          "internalType": "string",
          "name": "",
          "type": "string"
        }
      ],
      "stateMutability": "pure",
      "type": "function",
      "constant": true
    }
  ],
  "bytecode": "0x608060405260008060006101000a81548160ff0219169083151502179055503480156200002b57600080fd5b5060405162000d4f38038062000d4f8339818101604052810190620000519190620001ff565b8080600190816200006391906200049b565b50505062000582565b6000604051905090565b600080fd5b600080fd5b600080fd5b600080fd5b6000601f19601f8301169050919050565b7f4e487b7100000000000000000000000000000000000000000000000000000000600052604160045260246000fd5b620000d5826200008a565b810181811067ffffffffffffffff82111715620000f757620000f66200009b565b5b80604052505050565b60006200010c6200006c565b90506200011a8282620000ca565b919050565b600067ffffffffffffffff8211156200013d576200013c6200009b565b5b62000148826200008a565b9050602081019050919050565b60005b838110156200017557808201518184015260208101905062000158565b60008484015250505050565b60006200019862000192846200011f565b62000100565b905082815260208101848484011115620001b757620001b662000085565b5b620001c484828562000155565b509392505050565b600082601f830112620001e457620001e362000080565b5b8151620001f684826020860162000181565b91505092915050565b60006020828403121562000218576200021762000076565b5b600082015167ffffffffffffffff8111156200023957620002386200007b565b5b6200024784828501620001cc565b91505092915050565b600081519050919050565b7f4e487b7100000000000000000000000000000000000000000000000000000000600052602260045260246000fd5b60006002820490506001821680620002a357607f821691505b602082108103620002b957620002b86200025b565b5b50919050565b60008190508160005260206000209050919050565b60006020601f8301049050919050565b600082821b905092915050565b600060088302620003237fffffffffffffffffffffffffffffffffffffffffffffffffffffffffffffffff82620002e4565b6200032f8683620002e4565b95508019841693508086168417925050509392505050565b6000819050919050565b6000819050919050565b60006200037c62000376620003708462000347565b62000351565b62000347565b9050919050565b6000819050919050565b62000398836200035b565b620003b0620003a78262000383565b848454620002f1565b825550505050565b600090565b620003c7620003b8565b620003d48184846200038d565b505050565b5b81811015620003fc57620003f0600082620003bd565b600181019050620003da565b5050565b601f8211156200044b576200041581620002bf565b6200042084620002d4565b8101602085101562000430578190505b620004486200043f85620002d4565b830182620003d9565b50505b505050565b600082821c905092915050565b6000620004706000198460080262000450565b1980831691505092915050565b60006200048b83836200045d565b9150826002028217905092915050565b620004a68262000250565b67ffffffffffffffff811115620004c257620004c16200009b565b5b620004ce82546200028a565b620004db82828562000400565b600060209050601f831160018114620005135760008415620004fe578287015190505b6200050a85826200047d565b8655506200057a565b601f1984166200052386620002bf565b60005b828110156200054d5784890151825560018201915060208501945060208101905062000526565b868310156200056d578489015162000569601f8916826200045d565b8355505b6001600288020188555050505b505050505050565b6107bd80620005926000396000f3fe608060405234801561001057600080fd5b50600436106100575760003560e01c8063133a473e1461005c57806317d7de7c1461007a57806350d8531514610098578063728d9b74146100b6578063ad3a4fcf146100e6575b600080fd5b610064610104565b60405161007191906103f7565b60405180910390f35b610082610141565b60405161008f91906103f7565b60405180910390f35b6100a06101d3565b6040516100ad91906103f7565b60405180910390f35b6100d060048036038101906100cb9190610562565b610210565b6040516100dd91906103f7565b60405180910390f35b6100ee610312565b6040516100fb91906105c6565b60405180910390f35b60606040518060400160405280600781526020017f7a2d7a2d7a2d7a00000000000000000000000000000000000000000000000000815250905090565b60606001805461015090610610565b80601f016020809104026020016040519081016040528092919081815260200182805461017c90610610565b80156101c95780601f1061019e576101008083540402835291602001916101c9565b820191906000526020600020905b8154815290600101906020018083116101ac57829003601f168201915b5050505050905090565b60606040518060400160405280600481526020017f4d6f6f6f00000000000000000000000000000000000000000000000000000000815250905090565b60608173__StringCompare_________________________633a96fdd7826040518060400160405280600581526020017f706c616e740000000000000000000000000000000000000000000000000000008152506040518363ffffffff1660e01b815260040161028192919061068b565b602060405180830381865af415801561029e573d6000803e3d6000fd5b505050506040513d601f19601f820116820180604052508101906102c291906106ee565b610301576040517f08c379a00000000000000000000000000000000000000000000000000000000081526004016102f890610767565b60405180910390fd5b61030a83610328565b915050919050565b60008060009054906101000a900460ff16905090565b60606040518060400160405280600781526020017f4e6f6d2d4e6f6d000000000000000000000000000000000000000000000000008152509050919050565b600081519050919050565b600082825260208201905092915050565b60005b838110156103a1578082015181840152602081019050610386565b60008484015250505050565b6000601f19601f8301169050919050565b60006103c982610367565b6103d38185610372565b93506103e3818560208601610383565b6103ec816103ad565b840191505092915050565b6000602082019050818103600083015261041181846103be565b905092915050565b6000604051905090565b600080fd5b600080fd5b600080fd5b600080fd5b7f4e487b7100000000000000000000000000000000000000000000000000000000600052604160045260246000fd5b61046f826103ad565b810181811067ffffffffffffffff8211171561048e5761048d610437565b5b80604052505050565b60006104a1610419565b90506104ad8282610466565b919050565b600067ffffffffffffffff8211156104cd576104cc610437565b5b6104d6826103ad565b9050602081019050919050565b82818337600083830152505050565b6000610505610500846104b2565b610497565b90508281526020810184848401111561052157610520610432565b5b61052c8482856104e3565b509392505050565b600082601f8301126105495761054861042d565b5b81356105598482602086016104f2565b91505092915050565b60006020828403121561057857610577610423565b5b600082013567ffffffffffffffff81111561059657610595610428565b5b6105a284828501610534565b91505092915050565b60008115159050919050565b6105c0816105ab565b82525050565b60006020820190506105db60008301846105b7565b92915050565b7f4e487b7100000000000000000000000000000000000000000000000000000000600052602260045260246000fd5b6000600282049050600182168061062857607f821691505b60208210810361063b5761063a6105e1565b5b50919050565b600082825260208201905092915050565b600061065d82610367565b6106678185610641565b9350610677818560208601610383565b610680816103ad565b840191505092915050565b600060408201905081810360008301526106a58185610652565b905081810360208301526106b98184610652565b90509392505050565b6106cb816105ab565b81146106d657600080fd5b50565b6000815190506106e8816106c2565b92915050565b60006020828403121561070457610703610423565b5b6000610712848285016106d9565b91505092915050565b7f49742063616e27742065617420746869732e0000000000000000000000000000600082015250565b6000610751601283610372565b915061075c8261071b565b602082019050919050565b6000602082019050818103600083015261078081610744565b905091905056fea2646970667358221220836df138f591a9980e3344ecb54aa96b33e9f40332e75777fabc8ddad5ed8c0164736f6c63430008110033",
  "immutableReferences": {},
  "source": "// SPDX-License-Identifier: MIT.\r\n\r\npragma solidity ^0.8.17;\r\n\r\nlibrary StringCompare{\r\n    function compare(string memory str1, string memory str2) public pure returns (bool) {   \r\n        return keccak256(abi.encodePacked(str1)) == keccak256(abi.encodePacked(str2));\r\n    }\r\n}\r\n\r\ninterface iAnimal{\r\n    function getIfMeatEater() view external returns(bool);\r\n    function eat(string memory) pure external returns(string memory);\r\n    function speak() pure external returns(string memory);\r\n    function sleep() pure external returns(string memory);\r\n}\r\n\r\nabstract contract HasName{\r\n    string _name;\r\n\r\n    constructor(string memory name){\r\n        _name = name;\r\n    }\r\n\r\n    function getName() view public returns(string memory){\r\n        return _name;\r\n    }\r\n}\r\n\r\nabstract contract Animal is iAnimal{   \r\n    bool ifMeatEater = false;\r\n    function getIfMeatEater() view public returns(bool){\r\n        return ifMeatEater;\r\n    }\r\n    function changeIfMeatEater() virtual internal{\r\n        ifMeatEater = true;\r\n    }\r\n\r\n    function eat(string memory) pure virtual public returns(string memory){\r\n        return \"Nom-Nom\";\r\n    }\r\n    function speak() pure virtual public returns(string memory){\r\n        return \"...\";\r\n    }\r\n    function sleep() pure public returns(string memory){\r\n        return \"z-z-z-z\";\r\n    }\r\n}\r\n\r\nabstract contract Herbivore is Animal{\r\n    string constant private FOOD = \"plant\";\r\n\r\n    function eat(string memory food) pure onlyPlant(food) override public returns(string memory){\r\n        return super.eat(food);\r\n    }\r\n\r\n    modifier onlyPlant(string memory food) {\r\n        require(StringCompare.compare(food, FOOD), \"It can't eat this.\");\r\n        _;\r\n    }\r\n}\r\n\r\nabstract contract meatEater is Animal{\r\n    string constant private FOOD = \"meat\";\r\n\r\n    function eat(string memory food) pure onlyMeat(food) override public returns(string memory){\r\n        return super.eat(food);\r\n    }\r\n\r\n    modifier onlyMeat(string memory food) {\r\n        require(StringCompare.compare(food, FOOD), \"It can't eat this\");\r\n        _;\r\n    }\r\n}\r\n\r\nabstract contract Omnivore is Animal{\r\n    string constant private FOOD1 = \"plant\";\r\n    string constant private FOOD2 = \"meat\";\r\n    //string constant private BADFOOD = \"chocolate\";\r\n\r\n    function eat(string memory food) pure plantOrMeat(food) override public returns(string memory){\r\n        return super.eat(food);\r\n    }\r\n\r\n    modifier plantOrMeat(string memory food) {\r\n        require(StringCompare.compare(food, FOOD1) || StringCompare.compare(food, FOOD2), \"It can't eat this\");\r\n        /*require(StringCompare.compare(food, FOOD1)&&!StringCompare.compare(food, BADFOOD) \r\n            || StringCompare.compare(food, FOOD2)&&!StringCompare.compare(food, BADFOOD), \"It can't eat this\");*/\r\n        _;\r\n    }\r\n}\r\n\r\ncontract Cow is Herbivore, HasName{\r\n    constructor(string memory name) HasName(name){\r\n    }\r\n\r\n    function speak() pure override public returns(string memory){\r\n        return \"Mooo\";\r\n    }\r\n}\r\ncontract Horse is Herbivore, HasName{\r\n    constructor(string memory name) HasName(name){\r\n    }\r\n\r\n    function speak() pure override public returns(string memory){\r\n        return \"Igogo\";\r\n    }\r\n}\r\n\r\ncontract Wolf is meatEater{\r\n    constructor(){\r\n        super.changeIfMeatEater();\r\n    }\r\n\r\n    function speak() pure override public returns(string memory){\r\n        return \"Awoo\";\r\n    }\r\n}\r\n\r\ncontract Dog is Omnivore, HasName{\r\n    constructor(string memory name) HasName(name){\r\n    }\r\n\r\n    function speak() pure override public returns(string memory){\r\n        return \"Woof\";\r\n    }\r\n}",
  "sourcePath": "D:\\JS code\\Sol Course\\Lecture 15 Homework\\contracts\\Farm OOP.sol",
  "compiler": {
    "name": "solc",
    "version": "0.8.17+commit.8df45f5f.Emscripten.clang"
  },
  "schemaVersion": "3.4.11",
  "updatedAt": "2023-02-01T23:17:25.756Z",
  "networkType": "ethereum",
  "devdoc": {
    "kind": "dev",
    "methods": {},
    "version": 1
  },
  "userdoc": {
    "kind": "user",
    "methods": {},
    "version": 1
  }
}