{
  "contractName": "Farmer",
  "abi": [
    {
      "inputs": [
        {
          "internalType": "address",
          "name": "animal",
          "type": "address"
        },
        {
          "internalType": "string",
          "name": "food",
          "type": "string"
        }
      ],
      "name": "feed",
      "outputs": [
        {
          "internalType": "string",
          "name": "",
          "type": "string"
        }
      ],
      "stateMutability": "view",
      "type": "function",
      "constant": true
    },
    {
      "inputs": [
        {
          "internalType": "address",
          "name": "animal",
          "type": "address"
        }
      ],
      "name": "call",
      "outputs": [
        {
          "internalType": "string",
          "name": "",
          "type": "string"
        }
      ],
      "stateMutability": "view",
      "type": "function",
      "constant": true
    },
    {
      "inputs": [
        {
          "internalType": "address",
          "name": "animal",
          "type": "address"
        }
      ],
      "name": "close",
      "outputs": [
        {
          "internalType": "string",
          "name": "",
          "type": "string"
        }
      ],
      "stateMutability": "view",
      "type": "function",
      "constant": true
    },
    {
      "inputs": [
        {
          "internalType": "address",
          "name": "animal",
          "type": "address"
        }
      ],
      "name": "fight",
      "outputs": [
        {
          "internalType": "string",
          "name": "",
          "type": "string"
        }
      ],
      "stateMutability": "view",
      "type": "function",
      "constant": true
    }
  ],
  "bytecode": "0x608060405234801561001057600080fd5b50610aee806100206000396000f3fe608060405234801561001057600080fd5b506004361061004c5760003560e01c8063337612db14610051578063644b375e14610081578063c74073a1146100b1578063f55332ab146100e1575b600080fd5b61006b6004803603810190610066919061074c565b610111565b6040516100789190610827565b60405180910390f35b61009b60048036038101906100969190610849565b61024b565b6040516100a89190610827565b60405180910390f35b6100cb60048036038101906100c69190610849565b610338565b6040516100d89190610827565b60405180910390f35b6100fb60048036038101906100f69190610849565b610466565b6040516101089190610827565b60405180910390f35b6060828073ffffffffffffffffffffffffffffffffffffffff1663ad3a4fcf6040518163ffffffff1660e01b8152600401602060405180830381865afa15801561015f573d6000803e3d6000fd5b505050506040513d601f19601f8201168201806040525081019061018391906108ae565b156101c3576040517f08c379a00000000000000000000000000000000000000000000000000000000081526004016101ba9061094d565b60405180910390fd5b8373ffffffffffffffffffffffffffffffffffffffff1663728d9b74846040518263ffffffff1660e01b81526004016101fc9190610827565b600060405180830381865afa158015610219573d6000803e3d6000fd5b505050506040513d6000823e3d601f19601f8201168201806040525081019061024291906109dd565b91505092915050565b60608173ffffffffffffffffffffffffffffffffffffffff1663ad3a4fcf6040518163ffffffff1660e01b8152600401602060405180830381865afa158015610298573d6000803e3d6000fd5b505050506040513d601f19601f820116820180604052508101906102bc91906108ae565b6102fb576040517f08c379a00000000000000000000000000000000000000000000000000000000081526004016102f290610a98565b60405180910390fd5b6040518060400160405280600d81526020017f49742773206d79206661726d21000000000000000000000000000000000000008152509050919050565b6060818073ffffffffffffffffffffffffffffffffffffffff1663ad3a4fcf6040518163ffffffff1660e01b8152600401602060405180830381865afa158015610386573d6000803e3d6000fd5b505050506040513d601f19601f820116820180604052508101906103aa91906108ae565b156103ea576040517f08c379a00000000000000000000000000000000000000000000000000000000081526004016103e19061094d565b60405180910390fd5b8273ffffffffffffffffffffffffffffffffffffffff1663133a473e6040518163ffffffff1660e01b8152600401600060405180830381865afa158015610435573d6000803e3d6000fd5b505050506040513d6000823e3d601f19601f8201168201806040525081019061045e91906109dd565b915050919050565b6060818073ffffffffffffffffffffffffffffffffffffffff1663ad3a4fcf6040518163ffffffff1660e01b8152600401602060405180830381865afa1580156104b4573d6000803e3d6000fd5b505050506040513d601f19601f820116820180604052508101906104d891906108ae565b15610518576040517f08c379a000000000000000000000000000000000000000000000000000000000815260040161050f9061094d565b60405180910390fd5b8273ffffffffffffffffffffffffffffffffffffffff166350d853156040518163ffffffff1660e01b8152600401600060405180830381865afa158015610563573d6000803e3d6000fd5b505050506040513d6000823e3d601f19601f8201168201806040525081019061058c91906109dd565b915050919050565b6000604051905090565b600080fd5b600080fd5b600073ffffffffffffffffffffffffffffffffffffffff82169050919050565b60006105d3826105a8565b9050919050565b6105e3816105c8565b81146105ee57600080fd5b50565b600081359050610600816105da565b92915050565b600080fd5b600080fd5b6000601f19601f8301169050919050565b7f4e487b7100000000000000000000000000000000000000000000000000000000600052604160045260246000fd5b61065982610610565b810181811067ffffffffffffffff8211171561067857610677610621565b5b80604052505050565b600061068b610594565b90506106978282610650565b919050565b600067ffffffffffffffff8211156106b7576106b6610621565b5b6106c082610610565b9050602081019050919050565b82818337600083830152505050565b60006106ef6106ea8461069c565b610681565b90508281526020810184848401111561070b5761070a61060b565b5b6107168482856106cd565b509392505050565b600082601f83011261073357610732610606565b5b81356107438482602086016106dc565b91505092915050565b600080604083850312156107635761076261059e565b5b6000610771858286016105f1565b925050602083013567ffffffffffffffff811115610792576107916105a3565b5b61079e8582860161071e565b9150509250929050565b600081519050919050565b600082825260208201905092915050565b60005b838110156107e25780820151818401526020810190506107c7565b60008484015250505050565b60006107f9826107a8565b61080381856107b3565b93506108138185602086016107c4565b61081c81610610565b840191505092915050565b6000602082019050818103600083015261084181846107ee565b905092915050565b60006020828403121561085f5761085e61059e565b5b600061086d848285016105f1565b91505092915050565b60008115159050919050565b61088b81610876565b811461089657600080fd5b50565b6000815190506108a881610882565b92915050565b6000602082840312156108c4576108c361059e565b5b60006108d284828501610899565b91505092915050565b7f596f75206d6179206d616e616765206f6e6c7920646f6d657374696320616e6960008201527f6d616c732e000000000000000000000000000000000000000000000000000000602082015250565b60006109376025836107b3565b9150610942826108db565b604082019050919050565b600060208201905081810360008301526109668161092a565b9050919050565b600061098061097b8461069c565b610681565b90508281526020810184848401111561099c5761099b61060b565b5b6109a78482856107c4565b509392505050565b600082601f8301126109c4576109c3610606565b5b81516109d484826020860161096d565b91505092915050565b6000602082840312156109f3576109f261059e565b5b600082015167ffffffffffffffff811115610a1157610a106105a3565b5b610a1d848285016109af565b91505092915050565b7f4974206973206e656365737361727920746f206669676874206f6e6c7920616760008201527f61696e7374207072656461746f72732e00000000000000000000000000000000602082015250565b6000610a826030836107b3565b9150610a8d82610a26565b604082019050919050565b60006020820190508181036000830152610ab181610a75565b905091905056fea2646970667358221220e154e6e9a07de8a5d89723ebe5f214f58ee11382f5c280e05690b08150382d8864736f6c63430008110033",
  "immutableReferences": {},
  "source": "// SPDX-License-Identifier: MIT.\r\n\r\npragma solidity ^0.8.17;\r\n\r\ninterface iAnimal{\r\n    function getIfMeatEater() view external returns(bool);\r\n    function eat(string memory) pure external returns(string memory);\r\n    function speak() pure external returns(string memory);\r\n    function sleep() pure external returns(string memory);\r\n}\r\n\r\ncontract Farmer{\r\n    \r\n    function feed(address animal, string memory food) view onlyDomestic(animal) public returns(string memory){\r\n        return iAnimal(animal).eat(food);\r\n    }\r\n\r\n    function call(address animal) view onlyDomestic(animal) public returns(string memory){\r\n        return iAnimal(animal).speak();\r\n    }\r\n\r\n    function close(address animal) view onlyDomestic(animal) public returns(string memory){\r\n        return iAnimal(animal).sleep();\r\n    }\r\n\r\n    function fight(address animal) view public returns(string memory){\r\n        require(iAnimal(animal).getIfMeatEater(), \"It is necessary to fight only against predators.\");\r\n        return \"It's my farm!\";\r\n    }\r\n\r\n    modifier onlyDomestic(address animal) {\r\n        require(!iAnimal(animal).getIfMeatEater(), \"You may manage only domestic animals.\");\r\n        _;\r\n    }\r\n}",
  "sourcePath": "D:\\JS code\\Sol Course\\Lecture 14 Homework\\contracts\\Farmer OOP.sol",
  "compiler": {
    "name": "solc",
    "version": "0.8.17+commit.8df45f5f.Emscripten.clang"
  },
  "schemaVersion": "3.4.11",
  "updatedAt": "2023-01-30T08:09:41.987Z",
  "networkType": "ethereum",
  "devdoc": {
    "kind": "dev",
    "methods": {},
    "version": 1
  },
  "userdoc": {
    "kind": "user",
    "methods": {},
    "version": 1
  }
}