{
  "contractName": "StringCompare",
  "abi": [
    {
      "inputs": [
        {
          "internalType": "string",
          "name": "str1",
          "type": "string"
        },
        {
          "internalType": "string",
          "name": "str2",
          "type": "string"
        }
      ],
      "name": "compare",
      "outputs": [
        {
          "internalType": "bool",
          "name": "",
          "type": "bool"
        }
      ],
      "stateMutability": "pure",
      "type": "function",
      "constant": true
    }
  ],
  "bytecode": "0x610389610053600b82828239805160001a607314610046577f4e487b7100000000000000000000000000000000000000000000000000000000600052600060045260246000fd5b30600052607381538281f3fe73000000000000000000000000000000000000000030146080604052600436106100355760003560e01c80633a96fdd71461003a575b600080fd5b610054600480360381019061004f919061021d565b61006a565b60405161006191906102b0565b60405180910390f35b60008160405160200161007d919061033c565b60405160208183030381529060405280519060200120836040516020016100a4919061033c565b6040516020818303038152906040528051906020012014905092915050565b6000604051905090565b600080fd5b600080fd5b600080fd5b600080fd5b6000601f19601f8301169050919050565b7f4e487b7100000000000000000000000000000000000000000000000000000000600052604160045260246000fd5b61012a826100e1565b810181811067ffffffffffffffff82111715610149576101486100f2565b5b80604052505050565b600061015c6100c3565b90506101688282610121565b919050565b600067ffffffffffffffff821115610188576101876100f2565b5b610191826100e1565b9050602081019050919050565b82818337600083830152505050565b60006101c06101bb8461016d565b610152565b9050828152602081018484840111156101dc576101db6100dc565b5b6101e784828561019e565b509392505050565b600082601f830112610204576102036100d7565b5b81356102148482602086016101ad565b91505092915050565b60008060408385031215610234576102336100cd565b5b600083013567ffffffffffffffff811115610252576102516100d2565b5b61025e858286016101ef565b925050602083013567ffffffffffffffff81111561027f5761027e6100d2565b5b61028b858286016101ef565b9150509250929050565b60008115159050919050565b6102aa81610295565b82525050565b60006020820190506102c560008301846102a1565b92915050565b600081519050919050565b600081905092915050565b60005b838110156102ff5780820151818401526020810190506102e4565b60008484015250505050565b6000610316826102cb565b61032081856102d6565b93506103308185602086016102e1565b80840191505092915050565b6000610348828461030b565b91508190509291505056fea2646970667358221220eb8a036a64ee7edbb2a15d9ac1a5c894affde192677169e2ddc97b8cec67093764736f6c63430008110033",
  "immutableReferences": {},
  "source": "// SPDX-License-Identifier: MIT.\r\n\r\npragma solidity ^0.8.17;\r\n\r\nlibrary StringCompare{\r\n    function compare(string memory str1, string memory str2) public pure returns (bool) {   \r\n        return keccak256(abi.encodePacked(str1)) == keccak256(abi.encodePacked(str2));\r\n    }\r\n}\r\n\r\ninterface iAnimal{\r\n    function getIfMeatEater() view external returns(bool);\r\n    function eat(string memory) pure external returns(string memory);\r\n    function speak() pure external returns(string memory);\r\n    function sleep() pure external returns(string memory);\r\n}\r\n\r\nabstract contract HasName{\r\n    string _name;\r\n\r\n    constructor(string memory name){\r\n        _name = name;\r\n    }\r\n\r\n    function getName() view public returns(string memory){\r\n        return _name;\r\n    }\r\n}\r\n\r\nabstract contract Animal is iAnimal{   \r\n    bool ifMeatEater = false;\r\n    function getIfMeatEater() view public returns(bool){\r\n        return ifMeatEater;\r\n    }\r\n    function changeIfMeatEater() virtual internal{\r\n        ifMeatEater = true;\r\n    }\r\n\r\n    function eat(string memory) pure virtual public returns(string memory){\r\n        return \"Nom-Nom\";\r\n    }\r\n    function speak() pure virtual public returns(string memory){\r\n        return \"...\";\r\n    }\r\n    function sleep() pure public returns(string memory){\r\n        return \"z-z-z-z\";\r\n    }\r\n}\r\n\r\nabstract contract Herbivore is Animal{\r\n    string constant private FOOD = \"plant\";\r\n\r\n    function eat(string memory food) pure onlyPlant(food) override public returns(string memory){\r\n        return super.eat(food);\r\n    }\r\n\r\n    modifier onlyPlant(string memory food) {\r\n        require(StringCompare.compare(food, FOOD), \"It can't eat this.\");\r\n        _;\r\n    }\r\n}\r\n\r\nabstract contract meatEater is Animal{\r\n    string constant private FOOD = \"meat\";\r\n\r\n    function eat(string memory food) pure onlyMeat(food) override public returns(string memory){\r\n        return super.eat(food);\r\n    }\r\n\r\n    modifier onlyMeat(string memory food) {\r\n        require(StringCompare.compare(food, FOOD), \"It can't eat this\");\r\n        _;\r\n    }\r\n}\r\n\r\nabstract contract Omnivore is Animal{\r\n    string constant private FOOD1 = \"plant\";\r\n    string constant private FOOD2 = \"meat\";\r\n    //string constant private BADFOOD = \"chocolate\";\r\n\r\n    function eat(string memory food) pure plantOrMeat(food) override public returns(string memory){\r\n        return super.eat(food);\r\n    }\r\n\r\n    modifier plantOrMeat(string memory food) {\r\n        require(StringCompare.compare(food, FOOD1) || StringCompare.compare(food, FOOD2), \"It can't eat this\");\r\n        /*require(StringCompare.compare(food, FOOD1)&&!StringCompare.compare(food, BADFOOD) \r\n            || StringCompare.compare(food, FOOD2)&&!StringCompare.compare(food, BADFOOD), \"It can't eat this\");*/\r\n        _;\r\n    }\r\n}\r\n\r\ncontract Cow is Herbivore, HasName{\r\n    constructor(string memory name) HasName(name){\r\n    }\r\n\r\n    function speak() pure override public returns(string memory){\r\n        return \"Mooo\";\r\n    }\r\n}\r\ncontract Horse is Herbivore, HasName{\r\n    constructor(string memory name) HasName(name){\r\n    }\r\n\r\n    function speak() pure override public returns(string memory){\r\n        return \"Igogo\";\r\n    }\r\n}\r\n\r\ncontract Wolf is meatEater{\r\n    constructor(){\r\n        super.changeIfMeatEater();\r\n    }\r\n\r\n    function speak() pure override public returns(string memory){\r\n        return \"Awoo\";\r\n    }\r\n}\r\n\r\ncontract Dog is Omnivore, HasName{\r\n    constructor(string memory name) HasName(name){\r\n    }\r\n\r\n    function speak() pure override public returns(string memory){\r\n        return \"Woof\";\r\n    }\r\n}",
  "sourcePath": "D:\\JS code\\Sol Course\\Lecture 14 Homework\\contracts\\Farm OOP.sol",
  "compiler": {
    "name": "solc",
    "version": "0.8.17+commit.8df45f5f.Emscripten.clang"
  },
  "schemaVersion": "3.4.11",
  "updatedAt": "2023-01-30T08:09:41.990Z",
  "networkType": "ethereum",
  "devdoc": {
    "kind": "dev",
    "methods": {},
    "version": 1
  },
  "userdoc": {
    "kind": "user",
    "methods": {},
    "version": 1
  }
}