{
  "contractName": "Wolf",
  "abi": [
    {
      "inputs": [],
      "stateMutability": "nonpayable",
      "type": "constructor"
    },
    {
      "inputs": [
        {
          "internalType": "string",
          "name": "food",
          "type": "string"
        }
      ],
      "name": "eat",
      "outputs": [
        {
          "internalType": "string",
          "name": "",
          "type": "string"
        }
      ],
      "stateMutability": "pure",
      "type": "function",
      "constant": true
    },
    {
      "inputs": [],
      "name": "getIfMeatEater",
      "outputs": [
        {
          "internalType": "bool",
          "name": "",
          "type": "bool"
        }
      ],
      "stateMutability": "view",
      "type": "function",
      "constant": true
    },
    {
      "inputs": [],
      "name": "sleep",
      "outputs": [
        {
          "internalType": "string",
          "name": "",
          "type": "string"
        }
      ],
      "stateMutability": "pure",
      "type": "function",
      "constant": true
    },
    {
      "inputs": [],
      "name": "speak",
      "outputs": [
        {
          "internalType": "string",
          "name": "",
          "type": "string"
        }
      ],
      "stateMutability": "pure",
      "type": "function",
      "constant": true
    }
  ],
  "bytecode": "0x608060405260008060006101000a81548160ff02191690831515021790555034801561002a57600080fd5b5061003d61004260201b61026d1760201c565b61005e565b60016000806101000a81548160ff021916908315150217905550565b6106be8061006d6000396000f3fe608060405234801561001057600080fd5b506004361061004c5760003560e01c8063133a473e1461005157806350d853151461006f578063728d9b741461008d578063ad3a4fcf146100bd575b600080fd5b6100596100db565b6040516100669190610358565b60405180910390f35b610077610118565b6040516100849190610358565b60405180910390f35b6100a760048036038101906100a291906104c3565b610155565b6040516100b49190610358565b60405180910390f35b6100c5610257565b6040516100d29190610527565b60405180910390f35b60606040518060400160405280600781526020017f7a2d7a2d7a2d7a00000000000000000000000000000000000000000000000000815250905090565b60606040518060400160405280600481526020017f41776f6f00000000000000000000000000000000000000000000000000000000815250905090565b60608173__StringCompare_________________________633a96fdd7826040518060400160405280600481526020017f6d656174000000000000000000000000000000000000000000000000000000008152506040518363ffffffff1660e01b81526004016101c692919061058c565b602060405180830381865af41580156101e3573d6000803e3d6000fd5b505050506040513d601f19601f8201168201806040525081019061020791906105ef565b610246576040517f08c379a000000000000000000000000000000000000000000000000000000000815260040161023d90610668565b60405180910390fd5b61024f83610289565b915050919050565b60008060009054906101000a900460ff16905090565b60016000806101000a81548160ff021916908315150217905550565b60606040518060400160405280600781526020017f4e6f6d2d4e6f6d000000000000000000000000000000000000000000000000008152509050919050565b600081519050919050565b600082825260208201905092915050565b60005b838110156103025780820151818401526020810190506102e7565b60008484015250505050565b6000601f19601f8301169050919050565b600061032a826102c8565b61033481856102d3565b93506103448185602086016102e4565b61034d8161030e565b840191505092915050565b60006020820190508181036000830152610372818461031f565b905092915050565b6000604051905090565b600080fd5b600080fd5b600080fd5b600080fd5b7f4e487b7100000000000000000000000000000000000000000000000000000000600052604160045260246000fd5b6103d08261030e565b810181811067ffffffffffffffff821117156103ef576103ee610398565b5b80604052505050565b600061040261037a565b905061040e82826103c7565b919050565b600067ffffffffffffffff82111561042e5761042d610398565b5b6104378261030e565b9050602081019050919050565b82818337600083830152505050565b600061046661046184610413565b6103f8565b90508281526020810184848401111561048257610481610393565b5b61048d848285610444565b509392505050565b600082601f8301126104aa576104a961038e565b5b81356104ba848260208601610453565b91505092915050565b6000602082840312156104d9576104d8610384565b5b600082013567ffffffffffffffff8111156104f7576104f6610389565b5b61050384828501610495565b91505092915050565b60008115159050919050565b6105218161050c565b82525050565b600060208201905061053c6000830184610518565b92915050565b600082825260208201905092915050565b600061055e826102c8565b6105688185610542565b93506105788185602086016102e4565b6105818161030e565b840191505092915050565b600060408201905081810360008301526105a68185610553565b905081810360208301526105ba8184610553565b90509392505050565b6105cc8161050c565b81146105d757600080fd5b50565b6000815190506105e9816105c3565b92915050565b60006020828403121561060557610604610384565b5b6000610613848285016105da565b91505092915050565b7f49742063616e2774206561742074686973000000000000000000000000000000600082015250565b60006106526011836102d3565b915061065d8261061c565b602082019050919050565b6000602082019050818103600083015261068181610645565b905091905056fea2646970667358221220c8cd57b32dcb4c9ae77c630c7189ec918f5beb72709b50777eaa5ed41f03866a64736f6c63430008110033",
  "immutableReferences": {},
  "source": "// SPDX-License-Identifier: MIT.\r\n\r\npragma solidity ^0.8.17;\r\n\r\nlibrary StringCompare{\r\n    function compare(string memory str1, string memory str2) public pure returns (bool) {   \r\n        return keccak256(abi.encodePacked(str1)) == keccak256(abi.encodePacked(str2));\r\n    }\r\n}\r\n\r\ninterface iAnimal{\r\n    function getIfMeatEater() view external returns(bool);\r\n    function eat(string memory) pure external returns(string memory);\r\n    function speak() pure external returns(string memory);\r\n    function sleep() pure external returns(string memory);\r\n}\r\n\r\nabstract contract HasName{\r\n    string _name;\r\n\r\n    constructor(string memory name){\r\n        _name = name;\r\n    }\r\n\r\n    function getName() view public returns(string memory){\r\n        return _name;\r\n    }\r\n}\r\n\r\nabstract contract Animal is iAnimal{   \r\n    bool ifMeatEater = false;\r\n    function getIfMeatEater() view public returns(bool){\r\n        return ifMeatEater;\r\n    }\r\n    function changeIfMeatEater() virtual internal{\r\n        ifMeatEater = true;\r\n    }\r\n\r\n    function eat(string memory) pure virtual public returns(string memory){\r\n        return \"Nom-Nom\";\r\n    }\r\n    function speak() pure virtual public returns(string memory){\r\n        return \"...\";\r\n    }\r\n    function sleep() pure public returns(string memory){\r\n        return \"z-z-z-z\";\r\n    }\r\n}\r\n\r\nabstract contract Herbivore is Animal{\r\n    string constant private FOOD = \"plant\";\r\n\r\n    function eat(string memory food) pure onlyPlant(food) override public returns(string memory){\r\n        return super.eat(food);\r\n    }\r\n\r\n    modifier onlyPlant(string memory food) {\r\n        require(StringCompare.compare(food, FOOD), \"It can't eat this.\");\r\n        _;\r\n    }\r\n}\r\n\r\nabstract contract meatEater is Animal{\r\n    string constant private FOOD = \"meat\";\r\n\r\n    function eat(string memory food) pure onlyMeat(food) override public returns(string memory){\r\n        return super.eat(food);\r\n    }\r\n\r\n    modifier onlyMeat(string memory food) {\r\n        require(StringCompare.compare(food, FOOD), \"It can't eat this\");\r\n        _;\r\n    }\r\n}\r\n\r\nabstract contract Omnivore is Animal{\r\n    string constant private FOOD1 = \"plant\";\r\n    string constant private FOOD2 = \"meat\";\r\n    //string constant private BADFOOD = \"chocolate\";\r\n\r\n    function eat(string memory food) pure plantOrMeat(food) override public returns(string memory){\r\n        return super.eat(food);\r\n    }\r\n\r\n    modifier plantOrMeat(string memory food) {\r\n        require(StringCompare.compare(food, FOOD1) || StringCompare.compare(food, FOOD2), \"It can't eat this\");\r\n        /*require(StringCompare.compare(food, FOOD1)&&!StringCompare.compare(food, BADFOOD) \r\n            || StringCompare.compare(food, FOOD2)&&!StringCompare.compare(food, BADFOOD), \"It can't eat this\");*/\r\n        _;\r\n    }\r\n}\r\n\r\ncontract Cow is Herbivore, HasName{\r\n    constructor(string memory name) HasName(name){\r\n    }\r\n\r\n    function speak() pure override public returns(string memory){\r\n        return \"Mooo\";\r\n    }\r\n}\r\ncontract Horse is Herbivore, HasName{\r\n    constructor(string memory name) HasName(name){\r\n    }\r\n\r\n    function speak() pure override public returns(string memory){\r\n        return \"Igogo\";\r\n    }\r\n}\r\n\r\ncontract Wolf is meatEater{\r\n    constructor(){\r\n        super.changeIfMeatEater();\r\n    }\r\n\r\n    function speak() pure override public returns(string memory){\r\n        return \"Awoo\";\r\n    }\r\n}\r\n\r\ncontract Dog is Omnivore, HasName{\r\n    constructor(string memory name) HasName(name){\r\n    }\r\n\r\n    function speak() pure override public returns(string memory){\r\n        return \"Woof\";\r\n    }\r\n}",
  "sourcePath": "D:\\JS code\\Sol Course\\Lecture 14 Homework\\contracts\\Farm OOP.sol",
  "compiler": {
    "name": "solc",
    "version": "0.8.17+commit.8df45f5f.Emscripten.clang"
  },
  "schemaVersion": "3.4.11",
  "updatedAt": "2023-01-30T08:09:41.983Z",
  "networkType": "ethereum",
  "devdoc": {
    "kind": "dev",
    "methods": {},
    "version": 1
  },
  "userdoc": {
    "kind": "user",
    "methods": {},
    "version": 1
  }
}