{
  "contractName": "TeamDB",
  "abi": [
    {
      "inputs": [],
      "stateMutability": "nonpayable",
      "type": "constructor"
    },
    {
      "anonymous": false,
      "inputs": [
        {
          "indexed": false,
          "internalType": "string",
          "name": "name",
          "type": "string"
        },
        {
          "indexed": false,
          "internalType": "address",
          "name": "account",
          "type": "address"
        },
        {
          "indexed": false,
          "internalType": "uint256",
          "name": "birthday",
          "type": "uint256"
        },
        {
          "indexed": false,
          "internalType": "bool",
          "name": "bonusPaid",
          "type": "bool"
        }
      ],
      "name": "HappyBirthday",
      "type": "event"
    },
    {
      "anonymous": false,
      "inputs": [
        {
          "indexed": false,
          "internalType": "address",
          "name": "account",
          "type": "address"
        },
        {
          "indexed": false,
          "internalType": "string",
          "name": "name",
          "type": "string"
        },
        {
          "indexed": false,
          "internalType": "uint256",
          "name": "salary",
          "type": "uint256"
        },
        {
          "indexed": false,
          "internalType": "uint256",
          "name": "birthday",
          "type": "uint256"
        }
      ],
      "name": "NewContact",
      "type": "event"
    },
    {
      "anonymous": false,
      "inputs": [
        {
          "indexed": false,
          "internalType": "address",
          "name": "account",
          "type": "address"
        },
        {
          "indexed": false,
          "internalType": "string",
          "name": "name",
          "type": "string"
        },
        {
          "indexed": false,
          "internalType": "uint256",
          "name": "salary",
          "type": "uint256"
        }
      ],
      "name": "SalaryPaid",
      "type": "event"
    },
    {
      "inputs": [
        {
          "internalType": "address",
          "name": "account",
          "type": "address"
        },
        {
          "internalType": "string",
          "name": "name",
          "type": "string"
        },
        {
          "internalType": "uint256",
          "name": "salary",
          "type": "uint256"
        },
        {
          "internalType": "uint256",
          "name": "bthday_year",
          "type": "uint256"
        },
        {
          "internalType": "uint256",
          "name": "bthday_month",
          "type": "uint256"
        },
        {
          "internalType": "uint256",
          "name": "bthday_day",
          "type": "uint256"
        }
      ],
      "name": "addTeammate",
      "outputs": [],
      "stateMutability": "nonpayable",
      "type": "function"
    },
    {
      "inputs": [
        {
          "internalType": "uint256",
          "name": "index",
          "type": "uint256"
        }
      ],
      "name": "getTeammate",
      "outputs": [
        {
          "components": [
            {
              "internalType": "address",
              "name": "account",
              "type": "address"
            },
            {
              "internalType": "string",
              "name": "name",
              "type": "string"
            },
            {
              "internalType": "uint256",
              "name": "salary",
              "type": "uint256"
            },
            {
              "internalType": "uint256",
              "name": "birthday",
              "type": "uint256"
            },
            {
              "internalType": "bool",
              "name": "todayBirthdayPaid",
              "type": "bool"
            }
          ],
          "internalType": "struct TeamDB.Teammates",
          "name": "",
          "type": "tuple"
        }
      ],
      "stateMutability": "view",
      "type": "function",
      "constant": true
    },
    {
      "inputs": [],
      "name": "deposit",
      "outputs": [],
      "stateMutability": "payable",
      "type": "function",
      "payable": true
    },
    {
      "inputs": [
        {
          "internalType": "uint256",
          "name": "index",
          "type": "uint256"
        },
        {
          "internalType": "uint256",
          "name": "salary",
          "type": "uint256"
        }
      ],
      "name": "changeSalary",
      "outputs": [],
      "stateMutability": "nonpayable",
      "type": "function"
    },
    {
      "inputs": [],
      "name": "sendSalaryAuto",
      "outputs": [],
      "stateMutability": "nonpayable",
      "type": "function"
    },
    {
      "inputs": [
        {
          "internalType": "uint256",
          "name": "index",
          "type": "uint256"
        }
      ],
      "name": "checkBirthday",
      "outputs": [
        {
          "internalType": "bool",
          "name": "",
          "type": "bool"
        }
      ],
      "stateMutability": "view",
      "type": "function",
      "constant": true
    },
    {
      "inputs": [],
      "name": "sendBirthdayBonus",
      "outputs": [],
      "stateMutability": "nonpayable",
      "type": "function"
    }
  ],
  "bytecode": "0x608060405234801561001057600080fd5b50336000806101000a81548173ffffffffffffffffffffffffffffffffffffffff021916908373ffffffffffffffffffffffffffffffffffffffff160217905550611f3f806100606000396000f3fe6080604052600436106100705760003560e01c80636c687b501161004e5780636c687b50146100cc578063b9e1189e146100f5578063d0e30db014610132578063e792ec4f1461013c57610070565b80631acb944314610075578063302a8c1d1461008c57806364c83baa146100a3575b600080fd5b34801561008157600080fd5b5061008a610179565b005b34801561009857600080fd5b506100a161048b565b005b3480156100af57600080fd5b506100ca60048036038101906100c591906112ee565b61086a565b005b3480156100d857600080fd5b506100f360048036038101906100ee9190611397565b610abf565b005b34801561010157600080fd5b5061011c600480360381019061011791906113d7565b610b7b565b604051610129919061141f565b60405180910390f35b61013a610bf2565b005b34801561014857600080fd5b50610163600480360381019061015e91906113d7565b610bf4565b604051610170919061155c565b60405180910390f35b60008054906101000a900473ffffffffffffffffffffffffffffffffffffffff1673ffffffffffffffffffffffffffffffffffffffff163373ffffffffffffffffffffffffffffffffffffffff1614610207576040517f08c379a00000000000000000000000000000000000000000000000000000000081526004016101fe90611601565b60405180910390fd5b60006001805490501161024f576040517f08c379a00000000000000000000000000000000000000000000000000000000081526004016102469061166d565b60405180910390fd5b6000805b6001805490508110156102a657600181815481106102745761027361168d565b5b9060005260206000209060050201600201548261029191906116eb565b9150808061029e9061171f565b915050610253565b50804710156102ea576040517f08c379a00000000000000000000000000000000000000000000000000000000081526004016102e1906117d9565b60405180910390fd5b60005b600180549050811015610487576001818154811061030e5761030d61168d565b5b906000526020600020906005020160000160009054906101000a900473ffffffffffffffffffffffffffffffffffffffff1673ffffffffffffffffffffffffffffffffffffffff166108fc6001838154811061036d5761036c61168d565b5b9060005260206000209060050201600201549081150290604051600060405180830381858888f193505050501580156103aa573d6000803e3d6000fd5b507fb81c76d174067002b59918a2f5287ec35b091e1eb64b58218feeb93c26a96966600182815481106103e0576103df61168d565b5b906000526020600020906005020160000160009054906101000a900473ffffffffffffffffffffffffffffffffffffffff16600183815481106104265761042561168d565b5b90600052602060002090600502016001016001848154811061044b5761044a61168d565b5b90600052602060002090600502016002015460405161046c93929190611910565b60405180910390a1808061047f9061171f565b9150506102ed565b5050565b60008054906101000a900473ffffffffffffffffffffffffffffffffffffffff1673ffffffffffffffffffffffffffffffffffffffff163373ffffffffffffffffffffffffffffffffffffffff1614610519576040517f08c379a000000000000000000000000000000000000000000000000000000000815260040161051090611601565b60405180910390fd5b600060018054905011610561576040517f08c379a00000000000000000000000000000000000000000000000000000000081526004016105589061166d565b60405180910390fd5b60005b6001805490508110156108675761057a81610b7b565b156107dc5760001515600182815481106105975761059661168d565b5b906000526020600020906005020160040160009054906101000a900460ff161515036107d75767016345785d8a0000471015610608576040517f08c379a00000000000000000000000000000000000000000000000000000000081526004016105ff906117d9565b60405180910390fd5b6001818154811061061c5761061b61168d565b5b906000526020600020906005020160000160009054906101000a900473ffffffffffffffffffffffffffffffffffffffff1673ffffffffffffffffffffffffffffffffffffffff166108fc67016345785d8a00009081150290604051600060405180830381858888f1935050505015801561069b573d6000803e3d6000fd5b5060018082815481106106b1576106b061168d565b5b906000526020600020906005020160040160006101000a81548160ff0219169083151502179055507f8557ac6775f28a6aab794cbd51ebd4612c822c351496a61324ccf45ca83c75426001828154811061070e5761070d61168d565b5b9060005260206000209060050201600101600183815481106107335761073261168d565b5b906000526020600020906005020160000160009054906101000a900473ffffffffffffffffffffffffffffffffffffffff16600184815481106107795761077861168d565b5b9060005260206000209060050201600301546001858154811061079f5761079e61168d565b5b906000526020600020906005020160040160009054906101000a900460ff166040516107ce949392919061194e565b60405180910390a15b610854565b600181815481106107f0576107ef61168d565b5b906000526020600020906005020160040160009054906101000a900460ff16156108535760006001828154811061082a5761082961168d565b5b906000526020600020906005020160040160006101000a81548160ff0219169083151502179055505b5b808061085f9061171f565b915050610564565b50565b60008054906101000a900473ffffffffffffffffffffffffffffffffffffffff1673ffffffffffffffffffffffffffffffffffffffff163373ffffffffffffffffffffffffffffffffffffffff16146108f8576040517f08c379a00000000000000000000000000000000000000000000000000000000081526004016108ef90611601565b60405180910390fd5b8573ffffffffffffffffffffffffffffffffffffffff163373ffffffffffffffffffffffffffffffffffffffff1603610966576040517f08c379a000000000000000000000000000000000000000000000000000000000815260040161095d906119e6565b60405180910390fd5b6000610973848484610d47565b905060006040518060a001604052808973ffffffffffffffffffffffffffffffffffffffff168152602001888152602001878152602001838152602001600015158152509050600181908060018154018082558091505060019003906000526020600020906005020160009091909190915060008201518160000160006101000a81548173ffffffffffffffffffffffffffffffffffffffff021916908373ffffffffffffffffffffffffffffffffffffffff1602179055506020820151816001019081610a419190611b9d565b50604082015181600201556060820151816003015560808201518160040160006101000a81548160ff02191690831515021790555050507f83ef5317d276e917a4c316182b7340914ab13d26e3298779c563dad4b229eaf688888885604051610aad9493929190611ca8565b60405180910390a15050505050505050565b60008054906101000a900473ffffffffffffffffffffffffffffffffffffffff1673ffffffffffffffffffffffffffffffffffffffff163373ffffffffffffffffffffffffffffffffffffffff1614610b4d576040517f08c379a0000000000000000000000000000000000000000000000000000000008152600401610b4490611601565b60405180910390fd5b8060018381548110610b6257610b6161168d565b5b9060005260206000209060050201600201819055505050565b6000806000610bae60018581548110610b9757610b9661168d565b5b906000526020600020906005020160030154610d6b565b9250925050600080610bbf42610d6b565b92509250508184148015610bd257508083145b15610be4576001945050505050610bed565b60009450505050505b919050565b565b610bfc6110b9565b60018281548110610c1057610c0f61168d565b5b90600052602060002090600502016040518060a00160405290816000820160009054906101000a900473ffffffffffffffffffffffffffffffffffffffff1673ffffffffffffffffffffffffffffffffffffffff1673ffffffffffffffffffffffffffffffffffffffff168152602001600182018054610c8f90611837565b80601f0160208091040260200160405190810160405280929190818152602001828054610cbb90611837565b8015610d085780601f10610cdd57610100808354040283529160200191610d08565b820191906000526020600020905b815481529060010190602001808311610ceb57829003601f168201915b5050505050815260200160028201548152602001600382015481526020016004820160009054906101000a900460ff1615151515815250509050919050565b600062015180610d58858585610d8c565b610d629190611cf4565b90509392505050565b6000806000610d7984610eeb565b8093508194508295505050509193909250565b60006107b2841015610d9d57600080fd5b600084905060008490506000849050600062253d8c60046064600c600e87610dc59190611d40565b610dcf9190611db2565b61132488610ddd9190611e1c565b610de79190611e1c565b610df19190611db2565b6003610dfd9190611e60565b610e079190611db2565b600c80600c600e88610e199190611d40565b610e239190611db2565b610e2d9190611e60565b600287610e3a9190611d40565b610e449190611d40565b61016f610e519190611e60565b610e5b9190611db2565b6004600c600e88610e6c9190611d40565b610e769190611db2565b6112c089610e849190611e1c565b610e8e9190611e1c565b6105b5610e9b9190611e60565b610ea59190611db2565b617d4b86610eb39190611d40565b610ebd9190611e1c565b610ec79190611e1c565b610ed19190611d40565b610edb9190611d40565b9050809450505050509392505050565b6000806000610f076201518085610f029190611ed8565b610f1a565b8093508194508295505050509193909250565b600080600080849050600062253d8c62010bd983610f389190611e1c565b610f429190611e1c565b9050600062023ab1826004610f579190611e60565b610f619190611db2565b9050600460038262023ab1610f769190611e60565b610f809190611e1c565b610f8a9190611db2565b82610f959190611d40565b9150600062164b09600184610faa9190611e1c565b610fa0610fb79190611e60565b610fc19190611db2565b9050601f6004826105b5610fd59190611e60565b610fdf9190611db2565b84610fea9190611d40565b610ff49190611e1c565b9250600061098f8460506110089190611e60565b6110129190611db2565b9050600060508261098f6110269190611e60565b6110309190611db2565b8561103b9190611d40565b9050600b8261104a9190611db2565b945084600c6110599190611e60565b6002836110669190611e1c565b6110709190611d40565b915084836031866110819190611d40565b606461108d9190611e60565b6110979190611e1c565b6110a19190611e1c565b92508298508197508096505050505050509193909250565b6040518060a00160405280600073ffffffffffffffffffffffffffffffffffffffff1681526020016060815260200160008152602001600081526020016000151581525090565b6000604051905090565b600080fd5b600080fd5b600073ffffffffffffffffffffffffffffffffffffffff82169050919050565b600061113f82611114565b9050919050565b61114f81611134565b811461115a57600080fd5b50565b60008135905061116c81611146565b92915050565b600080fd5b600080fd5b6000601f19601f8301169050919050565b7f4e487b7100000000000000000000000000000000000000000000000000000000600052604160045260246000fd5b6111c58261117c565b810181811067ffffffffffffffff821117156111e4576111e361118d565b5b80604052505050565b60006111f7611100565b905061120382826111bc565b919050565b600067ffffffffffffffff8211156112235761122261118d565b5b61122c8261117c565b9050602081019050919050565b82818337600083830152505050565b600061125b61125684611208565b6111ed565b90508281526020810184848401111561127757611276611177565b5b611282848285611239565b509392505050565b600082601f83011261129f5761129e611172565b5b81356112af848260208601611248565b91505092915050565b6000819050919050565b6112cb816112b8565b81146112d657600080fd5b50565b6000813590506112e8816112c2565b92915050565b60008060008060008060c0878903121561130b5761130a61110a565b5b600061131989828a0161115d565b965050602087013567ffffffffffffffff81111561133a5761133961110f565b5b61134689828a0161128a565b955050604061135789828a016112d9565b945050606061136889828a016112d9565b935050608061137989828a016112d9565b92505060a061138a89828a016112d9565b9150509295509295509295565b600080604083850312156113ae576113ad61110a565b5b60006113bc858286016112d9565b92505060206113cd858286016112d9565b9150509250929050565b6000602082840312156113ed576113ec61110a565b5b60006113fb848285016112d9565b91505092915050565b60008115159050919050565b61141981611404565b82525050565b60006020820190506114346000830184611410565b92915050565b61144381611134565b82525050565b600081519050919050565b600082825260208201905092915050565b60005b83811015611483578082015181840152602081019050611468565b60008484015250505050565b600061149a82611449565b6114a48185611454565b93506114b4818560208601611465565b6114bd8161117c565b840191505092915050565b6114d1816112b8565b82525050565b6114e081611404565b82525050565b600060a0830160008301516114fe600086018261143a565b5060208301518482036020860152611516828261148f565b915050604083015161152b60408601826114c8565b50606083015161153e60608601826114c8565b50608083015161155160808601826114d7565b508091505092915050565b6000602082019050818103600083015261157681846114e6565b905092915050565b600082825260208201905092915050565b7f53656e6465722073686f756c6420626520746865206f776e6572206f6620746860008201527f6520636f6e747261637400000000000000000000000000000000000000000000602082015250565b60006115eb602a8361157e565b91506115f68261158f565b604082019050919050565b6000602082019050818103600083015261161a816115de565b9050919050565b7f4e6f207465616d6d61746573207965742e000000000000000000000000000000600082015250565b600061165760118361157e565b915061166282611621565b602082019050919050565b600060208201905081810360008301526116868161164a565b9050919050565b7f4e487b7100000000000000000000000000000000000000000000000000000000600052603260045260246000fd5b7f4e487b7100000000000000000000000000000000000000000000000000000000600052601160045260246000fd5b60006116f6826112b8565b9150611701836112b8565b9250828201905080821115611719576117186116bc565b5b92915050565b600061172a826112b8565b91507fffffffffffffffffffffffffffffffffffffffffffffffffffffffffffffffff820361175c5761175b6116bc565b5b600182019050919050565b7f4e6f7420656e6f7567682066756e6473206f6e2074686520636f6e747261637460008201527f2e00000000000000000000000000000000000000000000000000000000000000602082015250565b60006117c360218361157e565b91506117ce82611767565b604082019050919050565b600060208201905081810360008301526117f2816117b6565b9050919050565b61180281611134565b82525050565b7f4e487b7100000000000000000000000000000000000000000000000000000000600052602260045260246000fd5b6000600282049050600182168061184f57607f821691505b60208210810361186257611861611808565b5b50919050565b60008190508160005260206000209050919050565b6000815461188a81611837565b611894818661157e565b945060018216600081146118af57600181146118c5576118f8565b60ff1983168652811515602002860193506118f8565b6118ce85611868565b60005b838110156118f0578154818901526001820191506020810190506118d1565b808801955050505b50505092915050565b61190a816112b8565b82525050565b600060608201905061192560008301866117f9565b8181036020830152611937818561187d565b90506119466040830184611901565b949350505050565b60006080820190508181036000830152611968818761187d565b905061197760208301866117f9565b6119846040830185611901565b6119916060830184611410565b95945050505050565b7f43616e277420616464206f6e6573656c66202100000000000000000000000000600082015250565b60006119d060138361157e565b91506119db8261199a565b602082019050919050565b600060208201905081810360008301526119ff816119c3565b9050919050565b60006020601f8301049050919050565b600082821b905092915050565b600060088302611a537fffffffffffffffffffffffffffffffffffffffffffffffffffffffffffffffff82611a16565b611a5d8683611a16565b95508019841693508086168417925050509392505050565b6000819050919050565b6000611a9a611a95611a90846112b8565b611a75565b6112b8565b9050919050565b6000819050919050565b611ab483611a7f565b611ac8611ac082611aa1565b848454611a23565b825550505050565b600090565b611add611ad0565b611ae8818484611aab565b505050565b5b81811015611b0c57611b01600082611ad5565b600181019050611aee565b5050565b601f821115611b5157611b2281611868565b611b2b84611a06565b81016020851015611b3a578190505b611b4e611b4685611a06565b830182611aed565b50505b505050565b600082821c905092915050565b6000611b7460001984600802611b56565b1980831691505092915050565b6000611b8d8383611b63565b9150826002028217905092915050565b611ba682611449565b67ffffffffffffffff811115611bbf57611bbe61118d565b5b611bc98254611837565b611bd4828285611b10565b600060209050601f831160018114611c075760008415611bf5578287015190505b611bff8582611b81565b865550611c67565b601f198416611c1586611868565b60005b82811015611c3d57848901518255600182019150602085019450602081019050611c18565b86831015611c5a5784890151611c56601f891682611b63565b8355505b6001600288020188555050505b505050505050565b6000611c7a82611449565b611c84818561157e565b9350611c94818560208601611465565b611c9d8161117c565b840191505092915050565b6000608082019050611cbd60008301876117f9565b8181036020830152611ccf8186611c6f565b9050611cde6040830185611901565b611ceb6060830184611901565b95945050505050565b6000611cff826112b8565b9150611d0a836112b8565b9250828202611d18816112b8565b91508282048414831517611d2f57611d2e6116bc565b5b5092915050565b6000819050919050565b6000611d4b82611d36565b9150611d5683611d36565b9250828203905081811260008412168282136000851215161715611d7d57611d7c6116bc565b5b92915050565b7f4e487b7100000000000000000000000000000000000000000000000000000000600052601260045260246000fd5b6000611dbd82611d36565b9150611dc883611d36565b925082611dd857611dd7611d83565b5b600160000383147f800000000000000000000000000000000000000000000000000000000000000083141615611e1157611e106116bc565b5b828205905092915050565b6000611e2782611d36565b9150611e3283611d36565b925082820190508281121560008312168382126000841215161715611e5a57611e596116bc565b5b92915050565b6000611e6b82611d36565b9150611e7683611d36565b9250828202611e8481611d36565b91507f80000000000000000000000000000000000000000000000000000000000000008414600084121615611ebc57611ebb6116bc565b5b8282058414831517611ed157611ed06116bc565b5b5092915050565b6000611ee3826112b8565b9150611eee836112b8565b925082611efe57611efd611d83565b5b82820490509291505056fea2646970667358221220fbc6da2456c2c5c991f540999bcd3c8a0c1375c377bd2c056a2a5aeeb831aa2f64736f6c63430008110033",
  "immutableReferences": {},
  "source": "// SPDX-License-Identifier: MIT.\r\n\r\npragma solidity ^0.8.17;\r\n\r\nimport \"./BokkyPooBahsDateTimeLibrary.sol\";\r\n\r\ncontract TeamDB {\r\n\r\n    address _owner;\r\n    uint256 constant birthdayBonus = 100000000000000000;\r\n\r\n    struct Teammates {\r\n        address account;\r\n        string name;\r\n        uint salary;\r\n        uint256 birthday;\r\n        bool todayBirthdayPaid;\r\n    }\r\n    Teammates[] _teammates;\r\n    \r\n    constructor (){\r\n        _owner = msg.sender;\r\n    }\r\n\r\n    function addTeammate(address account, string memory name, uint salary, uint256 bthday_year, uint256 bthday_month, uint256 bthday_day) public OnlyOwner {\r\n        require(msg.sender != account, \"Can't add oneself !\");\r\n        uint256 birthday = BokkyPooBahsDateTimeLibrary.timestampFromDate(bthday_year, bthday_month, bthday_day);\r\n        Teammates memory newTeammate = Teammates(account, name, salary, birthday, false);\r\n        _teammates.push(newTeammate);\r\n        emit NewContact(account, name, salary, birthday);\r\n    }\r\n    function getTeammate(uint256 index) view public returns(Teammates memory){\r\n        return _teammates[index];\r\n    }\r\n\r\n    function deposit() public payable{\r\n\r\n    }\r\n    function changeSalary(uint256 index, uint256 salary) public OnlyOwner{\r\n        _teammates[index].salary = salary;\r\n    }\r\n    function sendSalaryAuto() public OnlyOwner{\r\n        require(_teammates.length > 0, \"No teammates yet.\");\r\n        uint256 salarySum = 0;\r\n        for (uint256 i=0; i<_teammates.length; i++){\r\n            salarySum += _teammates[i].salary;\r\n        }\r\n        require(address(this).balance >= salarySum, \"Not enough funds on the contract.\");\r\n        for (uint256 i=0; i<_teammates.length; i++){\r\n            payable(_teammates[i].account).transfer(_teammates[i].salary);\r\n            emit SalaryPaid(_teammates[i].account, _teammates[i].name, _teammates[i].salary);\r\n        }\r\n    }\r\n\r\n    function getDate(uint256 timestamp) pure internal returns(uint256 year, uint256 month, uint256 day){\r\n        (year, month, day) = BokkyPooBahsDateTimeLibrary.timestampToDate(timestamp); \r\n    }\r\n    function checkBirthday(uint256 index) view public returns(bool){\r\n        (, uint256 bthday_month, uint256 bthday_day) = getDate(_teammates[index].birthday);\r\n        (, uint256 today_month, uint256 today_day) = getDate(block.timestamp);\r\n        if (bthday_month == today_month && bthday_day == today_day) {\r\n            return true; \r\n        } \r\n        return false;\r\n    }\r\n    function sendBirthdayBonus() public OnlyOwner{\r\n        require(_teammates.length > 0, \"No teammates yet.\");\r\n        for (uint256 i=0; i<_teammates.length; i++) {\r\n            if(checkBirthday(i)) {\r\n                if(_teammates[i].todayBirthdayPaid == false) {\r\n                    require(address(this).balance >= birthdayBonus, \"Not enough funds on the contract.\");\r\n                    payable(_teammates[i].account).transfer(birthdayBonus);\r\n                    _teammates[i].todayBirthdayPaid = true;\r\n                    emit HappyBirthday(_teammates[i].name, _teammates[i].account, _teammates[i].birthday, _teammates[i].todayBirthdayPaid);\r\n                }\r\n            }\r\n            else if (_teammates[i].todayBirthdayPaid) _teammates[i].todayBirthdayPaid = false;\r\n            // if it's not the teammate's birthday today - we reset his 'bonus sent' status so he will be able to get the bonus next year\r\n        }\r\n    }\r\n\r\n    modifier OnlyOwner{\r\n        require(msg.sender == _owner, \"Sender should be the owner of the contract\");\r\n        _;\r\n    }\r\n\r\n    event NewContact(address account, string name, uint256 salary, uint256 birthday);\r\n    event HappyBirthday(string name, address account, uint256 birthday, bool bonusPaid);\r\n    event SalaryPaid(address account, string name, uint256 salary);\r\n}",
  "sourcePath": "D:\\JS code\\Sol Course\\Lecture 14\\contracts\\FinanceManager 2.0.sol",
  "compiler": {
    "name": "solc",
    "version": "0.8.17+commit.8df45f5f.Emscripten.clang"
  },
  "schemaVersion": "3.4.11",
  "updatedAt": "2023-01-29T00:12:09.168Z",
  "networkType": "ethereum",
  "devdoc": {
    "kind": "dev",
    "methods": {},
    "version": 1
  },
  "userdoc": {
    "kind": "user",
    "methods": {},
    "version": 1
  }
}